S014000073656B76656E6365723831342E73726563AD
S113000019C033C032C031C030C02FC02EC02DC083
S113001051C52BC02AC029C028C05BC526C025C035
S113002024C0AFC522C021C020C01FC01EC01DC037
S11300301CC01BC011241FBECFEFCDBFDFE3DEBF4A
S11300401EE3A0E0BEE3E9E4F1E102C005900D92F5
S1130050A230B107D9F72EE3A2E0BEE301C01D929E
S1130060AD32B207E1F7DAD25FC8CACF9091040883
S113007095FFFCCF8093020808950F931F93CF93AD
S1130080082F192FC0E0C23348F4F801EC0FF11D1A
S11300908081811519F0EADFCF5FF5CFCF911F91F1
S11300A00F910895AF92BF92CF92DF92EF92FF9299
S11300B00F931F93CF93DF93CDB7DEB72A97CDBFAE
S11300C0DEBFC62ED72EE82EF92E042FFF2014F003
S11300D010E00CC0F094E094D094C094C11CD11CE6
S11300E0E11CF11C8DE2C2DFF3CF1F5F1930ECF489
S11300F0C701B6012AE030E040E050E0ABD7605DD4
S1130100E1E0F0E0EC0FFD1FE10FF11D17FDFA95A2
S11301106083C22ED32EE42EF52E011509F02CF7A0
S1130120C114D104E104F10401F7011534F00115FF
S113013009F104F11FEF100F1DC0C12E012E000C98
S1130140DD08202F332721950CF430955901C21670
S1130150D3066CF78CE291E990DFFF24F394C50198
S11301608C199D09F816190614F780E37FDFF394C0
S1130170F6CF11501115CCF0E12E012E000CFF0822
S1130180E1E0F0E0EC0FFD1FEE0DFF1D80816EDF5E
S113019001157CF7202F332721950CF43095E216B6
S11301A0F30639F78EE262DFE4CF2A96CDBFDEBFD5
S11301B0DF91CF911F910F91FF90EF90DF90CF903F
S11301C0BF90AF9008958F929F92AF92BF92CF92BB
S11301D0DF92EF92FF92CF93DF93D42FC0E00CC055
S11301E020E030E040E251E4C62ED72EE82EF92E6E
S11301F0C701B601AAD6CF5FCD1790F3D195862E4D
S1130200972EA82EB92EC501B401E0D54D2F4ADF93
S1130210DF91CF91FF90EF90DF90CF90BF90AF90A0
S11302209F908F9008950F931F93062F172F282FB9
S1130230392FF8944091293E50912A3E60912B3EEB
S113024070912C3E81E0401751076207730708F054
S113025080E078941F910F910895F8941092293EAC
S113026010922A3E10922B3E10922C3E78940895C0
S1130270CF93DF93282F392FD62FC72FF89440E040
S113028050E060E07DE281E391E0C2D6E0E0FAE094
S113029026A337A386A197A19695879584A795A7AA
S11302A080818160808384E080932104D093063E22
S11302B0C093073E7894DF91CF910895CF93DF9355
S11302C0D82FC0E00BC064E670E080E89CE0D0DF8B
S11302D068EC70E080E090E006D0CF5FCD1798F333
S11302E0DF91CF9108952F923F924F925F926F9238
S11302F07F928F929F92AF92BF92CF92DF92EF92B2
S1130300FF920F931F93CF93DF9300D00F92CDB73B
S1130310DEB7662E772E082F99839FDF28C11092AF
S1130320283E8091280483FF3BC01A8280910804F0
S113033083FD03C03A8134603A838091080480FDD0
S113034003C08A8188608A838091093E9A818913D7
S113035010920A3E8091083E81111EC080910A3E8F
S11303608F5F80930A3E8333B8F08091253E8111DC
S113037003C0EA81E230B9F0811103C0FA81F4309C
S1130380B1F08091253E811104C09A81983009F41E
S113039040C0FA81F093253E2A812093093EECC0A7
S11303A022E02A83C3CF91E09093243EE5CF2091AD
S11303B0003E3091013EA0E1B7E268D61B012C015A
S11303C024E73EE240E050E023D681E08093083EFB
S11303D088E8281680ED380681E04806510480F04C
S11303E02093003E3093013E81E068DF6091003E3F
S11303F07091013E81E090E07DD61092083EC1CF1D
S11304008AE090E08093003E9093013E82E056DFC4
S1130410EDCF2091003E3091013EA4E7BEE236D6F6
S11304201B012C0120E137E240E050E0F1D581E0EE
S11304308093083E21143104E0E14E06E7E25E06B3
S113044078F42093003E3093013E38DF6091003E03
S11304507091013E81E090E04DD61092083E99CF14
S11304608FEF9FEF8093003E9093013E82E026DF62
S1130470EDCF1092273E1A8215C03A81E32FF0E0A7
S1130480EE0FFF1FEE0FFF1FED5EF14C60817181D7
S11304908281938144E097DE8FE291E9EEDD8A81E7
S11304A08F5F8A839A81923040F383E391E9E5DD9B
S11304B0E3E1FEE364817581868197812081318146
S11304C042815381B6D343E0862E972EA82EB92EAF
S11304D0C501B40178DE88E391E9CFDD8CE391E9CD
S11304E0CCDD4FC0E12FF0E0EE0FFF1FEE0FFF1F3A
S11304F0EA83FB83E55EF14C2F0180819181A28127
S1130500B381EA81FB81E55FF14C80839183A2830F
S1130510B383F201608171818281938188D4EA81FD
S1130520FB81E15CFE462081318142815381C62EEC
S1130530D72EE82EF92EC701B60107D52A813B81B3
S11305402D5E314CF9016083718382839383F201C0
S113055010821182128213821F5F123018F21092DD
S1130560263E13C010E0F9CF80E08115D9F08091C8
S1130570283E813009F4D3CE2091273E213009F45E
S113058078CF2091263E213069F3662D772D802F78
S1130590998149DE811541F39091243E911529F307
S11305A080E0E3CF0F900F900F90DF91CF911F91D8
S11305B00F91FF90EF90DF90CF90BF90AF909F90FE
S11305C08F907F906F905F904F903F902F90089501
S11305D0CF93C82F811521F08091233E811511F00E
S11305E0CF9108958C2F6ADE6C2F80E090E077D550
S11305F0F7CF8170660F6270682B40FB442742F985
S1130600460F20FB222723F9240F2295207F80EF19
S1130610821BE0E0F4E0868325830895CDB7DEB73E
S11306206097CDBFDEBF88ED90E084BF90936100FA
S113063082EF8093000488E0809310048093120476
S11306408093130410922004109230041092310409
S113065080933304E0E0FAE0108283E4818388E14C
S11306609CE386A397A386A197A19695879584A7D3
S113067095A7E0E4FAE01082118281E0858380E2AC
S11306809EE48487958791E0908780818160808350
S11306909683E0E0F2E08181816081831092050815
S11306A080EC8093060883E080930708A0912511CD
S11306B00A2E000CBB0B20E03DE241E351E0F2D4F2
S11306C0052E5AE096958795779567955A95D1F7B3
S11306D0502D735D8E4C9E4F660F771F881F991F98
S11306E0660F771F881F991F660F771F881F991F32
S11306F0660F771F881F991F660F771F881F991F22
S1130700660F771F881F991F92D3E62F20E030E0F1
S113071046E958E4ED837E838F8398876D817E81DB
S11307208F819885EBD2E62F20E030E040E05FE354
S1130730E9877A878B879C8769857A858B859C85F1
S113074079D26D877E878F87988B6D857E858F851F
S1130750988941D369837A838B839C8389819A8125
S113076080930808909309081092A00082E0809377
S1130770A10083E88093000686E08093010685E06B
S11307808093020610920306109204061092050646
S11307908AE08093060691E0909308061092090679
S11307A090930A0690930B0610920C0690931606EB
S11307B0789481E090E08ED4082F192F0093003EA6
S11307C01093013E0F3F1F4F61F080E090E07AD418
S11307D081508093233E8F3F09F033C11092233E12
S11307E030C188E893E18093003E9093013EEDCFC1
S11307F020E040E060E081E0FCDE6091003E70912A
S1130800013E80E090E06FDD20E040E061E080E0C8
S1130810F0DE6091003E7091013E80E090E063DD87
S113082020E041E060E080E0E4DE6091003E709111
S1130830013E80E090E057DD21E040E060E080E0B0
S1130840D8DE6091003E7091013E80E090E04BDD87
S11308508091243E811509F4F4C01092243EF9C01D
S113086081508093233E83E0B3DE8091233E811147
S113087037C020E040E061E081E0BBDE6091003EF3
S11308807091013E80E090E02EDD20E041E061E0E7
S113089080E0AFDE6091003E7091013E80E090E028
S11308A022DD21E041E060E080E0A3DE6091003ED3
S11308B07091013E80E090E016DD21E040E060E0D0
S11308C081E097DE6091003E7091013E80E090E00F
S11308D00ADD8091243E811541F21092243E03C02A
S11308E081508093233E84E073DE8091233E811106
S11308F02BC020E040E061E081E07BDE6091003EBF
S11309007091013E80E090E0EEDC20E041E061E0A7
S113091080E06FDE6091003E7091013E80E090E0E7
S1130920E2DC20E041E060E081E063DE6091003ED3
S11309307091013E80E090E0D6DC8091243E8115E8
S1130940A1F21092243E03C081508093233E85E09F
S11309503FDE8091233E81111FC020E040E061E032
S113096081E047DE6091003E7091013E80E090E0BE
S1130970BADC21E041E060E080E03BDE6091003ED3
S11309807091013E80E090E0AEDC8091243E8115C0
S113099001F31092243E03C081508093233E86E0ED
S11309A017DE8091233E81111FC020E041E060E00A
S11309B081E01FDE6091003E7091013E80E090E096
S11309C092DC21E040E061E080E013DE6091003ED3
S11309D07091013E80E090E086DC8091243E811598
S11309E001F31092243E03C081508093233E87E09C
S11309F0EFDD8091233E81111FC021E041E061E0E1
S1130A0081E0F7DD6091003E7091013E80E090E06E
S1130A106ADC20E040E060E080E0EBDD6091003ED5
S1130A207091013E80E090E05EDC8091243E81156F
S1130A3001F31092243E03C081508093233E81E051
S1130A40C7DD8091233E811509F4D2CE8150809375
S1130A50233E82E0BDDD8091233E811101CF20E061
S1130A6040E060E081E0C5DD6091003E7091013EB0
S1130A7080E090E038DC20E040E061E080E0B9DD37
S1130A806091003E7091013E80E090E02CDC20E01B
S1130A9041E060E080E0ADDD6091003E7091013E98
S1130AA080E090E020DC8091243E8115A1F2109238
S1130AB0243ED9CE1F920F920FB60F9211248F931A
S1130AC081E080930B0A8F910F900FBE0F901F90BF
S1130AD018951F920F920FB60F9211242F938F9394
S1130AE09F93AF93BF93EF93FF938091293E90918F
S1130AF02A3EA0912B3EB0912C3E0196A11DB11D22
S1130B008093293E90932A3EA0932B3EB0932C3E93
S1130B1081E08093283E8091043E9091053E0196A9
S1130B208093043E9093053E883E934038F01092A3
S1130B30043E1092053E81E08093273E8091063E5C
S1130B409091073E0097A1F001978093063E909301
S1130B50073E81E08093460AFF91EF91BF91AF91E8
S1130B609F918F912F910F900FBE0F901F9018950A
S1130B70E0E0FAE080818E7F808384E08093220429
S1130B80E8CF1F920F920FB60F9211242F933F9329
S1130B904F935F936F937F938F93EF93FF93809122
S1130BA0263E811135C020911006309111068091A6
S1130BB0033EE82FF0E0EE0FFF1FEE0FFF1FE55E90
S1130BC0F14C4081518162817381420F531F611D39
S1130BD0711D40835183628373838F5F8093033ECF
S1130BE0823070F01092033E8091023E8F5F8093BA
S1130BF0023E883C28F01092023E81E08093263E1B
S1130C00E091033EF0E0E95BFE46808180930606B6
S1130C1081E080930B06FF91EF918F917F916F910B
S1130C205F914F913F912F910F900FBE0F901F90A6
S1130C3018955058BB27AA270ED04DC13ED130F08D
S1130C4043D120F031F49F3F11F41EF433C10EF46C
S1130C50E095E7FB29C1E92F4FD180F3BA1762076A
S1130C6073078407950718F071F49EF567C10EF4B5
S1130C70E0950B2EBA2FA02D0B01B90190010C01A8
S1130C80CA01A0011124FF27591B99F0593F50F4C0
S1130C90503E68F11A16F040A22F232F342F442718
S1130CA0585FF3CF469537952795A795F040539510
S1130CB0C9F77EF41F16BA0B620B730B840BBAF0E0
S1130CC09150A1F0FF0FBB1F661F771F881FC2F74B
S1130CD00EC0BA0F621F731F841F48F4879577955F
S1130CE06795B795F7959E3F08F0B3CF9395880F16
S1130CF008F09927EE0F9795879508950CD0EBC0CF
S1130D00E3D040F0DAD030F021F45F3F19F0CCC0EA
S1130D10511115C1CFC0F0D098F39923C9F35523CD
S1130D20B1F3951B550BBB27AA27621773078407DA
S1130D3038F09F5F5F4F220F331F441FAA1FA9F390
S1130D4033D00E2E3AF0E0E830D091505040E69582
S1130D50001CCAF729D0FE2F27D0660F771F881FE3
S1130D60BB1F261737074807AB07B0E809F0BB0BD2
S1130D70802DBF01FF2793585F4F2AF09E3F5105F6
S1130D8068F092C0DCC05F3FECF3983EDCF38695DC
S1130D9077956795B795F7959F5FC9F7880F911D6C
S1130DA09695879597F90895E1E0660F771F881F58
S1130DB0BB1F621773078407BA0720F0621B730B0B
S1130DC0840BBA0BEE1F88F7E095089504D068945D
S1130DD0B111B5C0089598D088F09F5790F0B92FFD
S1130DE09927B751A0F0D1F0660F771F881F991F7C
S1130DF01AF0BA95C9F712C0B13081F09FD0B1E0B2
S1130E0008959CC0672F782F8827B85F39F0B93FC1
S1130E10CCF3869577956795B395D9F73EF490957D
S1130E208095709561957F4F8F4F9F4F0895E894FB
S1130E3009C097FB3EF490958095709561957F4F1E
S1130E408F4F9F4F9923A9F0F92F96E9BB279395CC
S1130E50F695879577956795B795F111F8CFFAF4DC
S1130E60BB0F11F460FF1BC06F5F7F4F8F4F9F4F0D
S1130E7016C0882311F096E911C0772321F09EE86B
S1130E80872F762F05C0662371F096E8862F70E0D1
S1130E9060E02AF09A95660F771F881FDAF7880FAB
S1130EA09695879597F9089597F99F6780E870E07C
S1130EB060E008959FEF80EC089500240A941616CC
S1130EC0170618060906089500240A941216130634
S1130ED0140605060895092E0394000C11F48823C2
S1130EE052F0BB0F40F4BF2B11F460FF04C06F5FDE
S1130EF07F4F8F4F9F4F089557FD9058440F551FB4
S1130F0059F05F3F71F04795880F97FB991F61F087
S1130F109F3F79F087950895121613061406551FFE
S1130F20F2CF4695F1DF08C0161617061806991F6A
S1130F30F1CF86957105610508940895E894BB275F
S1130F4066277727CB0197F908950BD0C4CFB5DF77
S1130F5028F0BADF18F0952309F0A6CFABCF1124FF
S1130F60EECFCADFA0F3959FD1F3950F50E0551F44
S1130F70629FF001729FBB27F00DB11D639FAA27EA
S1130F80F00DB11DAA1F649F6627B00DA11D661F39
S1130F90829F2227B00DA11D621F739FB00DA11D5A
S1130FA0621F839FA00D611D221F749F3327A00D14
S1130FB0611D231F849F600D211D822F762F6A2FB0
S1130FC011249F5750408AF0E1F088234AF0EE0F35
S1130FD0FF1FBB1F661F771F881F91505040A9F742
S1130FE09E3F510570F060CFAACF5F3FECF3983E6F
S1130FF0DCF3869577956795B795F795E7959F5FA9
S1131000C1F7FE2B880F911D9695879597F9089542
S1131010A1E21A2EAA1BBB1BFD010DC0AA1FBB1FF8
S1131020EE1FFF1FA217B307E407F50720F0A21B6A
S1131030B30BE40BF50B661F771F881F991F1A94D7
S113104069F760957095809590959B01AC01BD0101
S1131050CF010895052E97FB16F400940FD057FD89
S113106005D0D6DF07FC02D046F408C05095409561
S1131070309521953F4F4F4F5F4F08959095809540
S1131080709561957F4F8F4F9F4F0895A29FB00138
S1131090B39FC001A39F01D0B29F700D811D112485
S11310A0911D0895B7FF04C003D0821B930B0895CC
S11310B0EDDFA59F900DB49F900DA49F800D911D11
S11310C01124089503D0808199270895FC01E050EC
S11310D0FC4E08950E946608808191810895262F10
S11310E00E9466080080021619F00E948108019788
S11310F0019708950196272F0E9470080C946F0899
S1131100262FAF93BF93E0E0F0E1328131FDFDCFB4
S1131110DC01A050BC4E2C932DE924BF23E0208396
S10F11200196BF91AF910895F894FFCFA1
S113112C302E0020560900646966200020562000E9
S110113C200A000E80E1340E80E1340A0B1D
S1051149881305
S9030000FC
