S014000073656B76656E6365723831342E73726563AD
S113000019C033C032C031C030C02FC02EC02DC083
S1130010C6C12BC02AC029C028C0C7C126C025C05C
S113002024C02EC222C021C020C01FC063C11DC075
S11300301CC01BC011241FBECFEFCDBFDFE3DEBF4A
S11300401EE3A0E0BEE3E7E8FCE102C005900D92E8
S1130050AE32B107D9F72EE3AEE2BEE301C01D9282
S1130060AF38B207E1F725D8CACCCACF90910408BB
S113007095FFFCCF8093020808950F931F93CF93AD
S1130080DF93EC018C010E5C1F4F8991811521F0E7
S1130090EDDFC017D107C9F7DF91CF911F910F9101
S11300A008952F923F924F925F927F928F929F92E8
S11300B0AF92BF92CF92DF92EF92FF920F931F9372
S11300C0CF93DF93CDB7DEB72A97CDBFDEBF6B01E9
S11300D07C01742EF7FE0AC0F094E094D094C0948E
S11300E0C11CD11CE11CF11C8DE2C0DFCE010196C4
S11300F04C0100E05C018AE0282E312C412C512C6B
S1130100C701B601A20191010BDC605DF4016193AA
S11301104F0169017A0117142CF0C114D104E104D0
S1130120F104E1F10F5F093059F777FC39C0711020
S11301301AC0002E000C110BE72DFF27E1950CF4DB
S1130140F0956F01F501E00FF11F80818FDFC80189
S113015001977C0177FE0AC0C016D10639F48EE2FD
S113016085DF8701EFCF0FEF070DE3CF87010F3F47
S113017049F72A96CDBFDEBFDF91CF911F910F9132
S1130180FF90EF90DF90CF90BF90AF909F908F90B3
S11301907F905F904F903F902F900895711449F293
S11301A0802E002E000C9908872D992781950CF438
S11301B090957C01881699060CF0BBCF82E29AE9EF
S11301C05CDFC12CD12CE818F9089FEFC91AD90AB1
S11301D0CE14DF040CF0ADCF80E348DFF6CF8F926E
S11301E09F92AF92BF92CF92DF92EF92FF92CF9302
S11301F0DF93D42FC0E0CD1312C0C1956B017C01F5
S1130200C701B60149DA4C2FDF91CF91FF90EF90EF
S1130210DF90CF90BF90AF909F908F9042CF20E01F
S113022030E040E251E44B015C01C501B401F3DA72
S1130230CF5FE1CF0F931F938B019C01F894409102
S11302408B3E50918C3E60918D3E70918E3E7894A1
S113025081E0401751076207730708F080E01F919F
S11302600F910895F89410928B3E10928C3E109248
S11302708D3E10928E3E78940895CF93DF939C0127
S1130280D62FC72FF89440E050E060E07DE281E390
S113029091E024DBE0E0FAE026A337A386A197A14E
S11302A09695879584A795A780818160808384E053
S11302B080932104D093653EC093663E7894DF9189
S11302C0CF9108958F7090916A3E911551F024E07A
S11302D090E0990F382F3170932B86952A95C9F7A2
S11302E0892F8295807F90EF981B909306048093CA
S11302F0050408950F920FB60F921F9211248F9345
S1130300EF93FF93CF93DF930F92CDB7DEB7809136
S1130310373E811140C08091383E811102C0109255
S1130320003E8091383E8B3250F08FEF8093003E38
S11303308093383E8091363E81608093363E809132
S11303400008E091383EF0E0E75CF14C8083809156
S1130350383E8F5F8093383EE091383EE150FF0B8A
S1130360E75CF14C8081803231F481E08093373E48
S11303708FEF8093003E8091040880688093040886
S11303800F90DF91CF91FF91EF918F911F900F907C
S11303900FBE0F901895809100088983ECCF8F933E
S11303A081E080930B0A8F9118951F921FB61F92BC
S11303B011242F938F939F93AF93BF9380918B3E80
S11303C090918C3EA0918D3EB0918E3E0196A11DE0
S11303D0B11D80938B3E90938C3EA0938D3EB09341
S11303E08E3E81E080938A3E8091003E8E3F28F4C9
S11303F08091003E8F5F8093003E8091003E8E3F4F
S113040051F48FEF8093003E1092383E8091363E37
S113041082608093363E8091343E9091353E0196C1
S1130420883E23E09207D8F48093343E9093353E7F
S11304308091653E9091663E0097C9F00197809344
S1130440653E9093663E81E08093460ABF91AF91EA
S11304509F918F912F911F901FBE1F9018951092FE
S1130460343E1092353E81E08093893EE1CF809105
S1130470000A8E7F8093000A84E080932204E3CFF5
S11304800F920FB60F921F9211242F933F934F9305
S11304905F936F937F938F939F93EF93FF938091D9
S11304A0883E811125C0209110063091110680915B
S11304B0333E94E0899FF0011124E558F14C4081CA
S11304C0518162817381420F531F611D711D4083ED
S11304D05183628373838F5F8230E0F48093333E71
S11304E0E091333EF0E0EB57F346808180930606BB
S11304F081E080930B06FF91EF919F918F917F9103
S11305006F915F914F913F912F911F900F900FBE6C
S11305100F9018951092333E8091323E8F5F883C45
S113052018F48093323EDCCF1092323E81E0809307
S1130530883ED6CF85E29AE9A0DD6091023E70E064
S113054080E090E040E0ADDD8091013E8037E1F451
S11305508FE29AE992DD8AE59AE98FDD8DE590E0F4
S113056017DA682F70E080E090E040E09ADD85E6DD
S11305709AE983DD60912B3E70912C3E80E090E0FF
S113058040E08FDD8AE072CD853619F48AE39AE97A
S1130590E1CF8D3619F485E49AE9DCCF80E59AE958
S11305A06CDD6091013E70E080E090E040E079DD38
S11305B0D2CF982F282F80E0492F460F5527551F5B
S11305C0DA013091383E422F50E0FA01E75CF14CF9
S11305D0231770F02081203219F020812D3231F45C
S11305E0690F7727771F6417750709F08FEF089550
S11305F03081303378F33081323360F74A175B0748
S11306004CF740814053550B880F842B2F5FD9CF73
S113061070E0FC01862F6C3258F49091383E6917D3
S113062038F4DB01A75CB14C9C912191921711F035
S113063080E008959115E1F39C91903229F09C910A
S11306406F5F7F4F9D3231F708951F93CF93DF93F0
S1130650282FDA01382F80E090E0422F460F5527EB
S1130660551FEA011AE07091383E432F50E0FA0119
S1130670E75CF14C3717A8F03081303219F0308143
S11306803D3249F4620F7727771F6417750719F411
S1130690A817B90714F48FEF9FEFDF91CF911F9143
S11306A008957081703340F370817A3328F74C17C2
S11306B05D0714F7189FA001199F500D1124808124
S11306C08053990B840F951F3F5FCDCF4F925F925C
S11306D06F927F928F929F92AF92BF92CF92DF924E
S11306E0EF92FF920F931F93CF93DF93CDB7DEB7B3
S11306F06097CDBFDEBF80E1E2E1FAE9DE01119649
S113070001900D928A95E1F78091373E813009F08E
S113071088C08E010F5F1F4FD80140E080E090E059
S11307200FC0F9016081603211F120812D32F9F09E
S11307305032C1F05D32B1F001968C32910591F0E6
S1130740782E2091383E821768F49C01275C314C46
S1130750F9015081ED91FC911197E80FF91F608127
S11307605617F9F24F5F12964830C1F6712C8091FA
S1130770383E8B3230F4E091383EF0E0E75CF14CE7
S11307801082483008F0F8C2E42FF0E0EF5FF24F37
S113079009946091733E7091743E8091753E90917E
S11307A0763E44E01CDD89E061DC6091773E709127
S11307B0783E8091793E90917A3E44E010DD89E064
S11307C055DC8FE69AE959DC28C083E79AE9FBCF28
S11307D0B1DE83E89AE951DC6091363E70E080E056
S11307E090E040E05EDC83E99AE947DC0FE21EE337
S11307F042E3E42E4EE3F42E80E238DCD8016D911E
S11308008D0170E080E090E040E04BDCF801129252
S1130810E016F10689F789E029DC1092383E10923F
S1130820373E8091363E811509F181E39CE925DC50
S11308306091363E70E080E090E040E032DC8AE097
S113084015DCE091363EE370F0E0E25DF14C80812E
S11308508F3F51F0E091363EE370E150FF0BE15DD4
S1130860F14C80818F5F80831092363E6096CDBFBD
S1130870DEBFDF91CF911F910F91FF90EF90DF903A
S1130880CF90BF90AF909F908F907F906F905F902C
S11308904F9008957394672D86E99AE9B9DE182F6D
S11308A0811589F11F5F4DE150E062E0812FCDDEBB
S11308B08F3F29F5612F8BE99AE9AADE8115A9F00A
S11308C060912E3E6E3158F010922E3E60E070E042
S11308D080E090E040E0E5DB81EA9AE908C06F5FE0
S11308E060932E3E6D3198F3EFCF86EA9AE9C5DB2B
S11308F087E893E10197F1F700C000008ECF809361
S11309002E3E682FE4CF672D83EB9AE981DE182F02
S1130910811509F4ADC000912E3E88EB9AE90D31A2
S113092008F051CFFF24F394F10EEF2DF0E0E75CD3
S1130930F14C80818053823008F05BC064E08F2DDD
S113094038DE782EE6E0E10FF0E0C12CD12C760100
S11309508BE0810F882E912C8091383E9F01275C7B
S1130960314C5901E817C0F0D5018C91803219F04F
S11309708C918D3271F4155F1E171F0651F4B9EE78
S1130980CB16BDEFDB06E104F10418F4EFEF7E12A1
S113099020C080ED9AE9ABCFD5018C91803320F350
S11309A08C918A3308F7E815F905F4F6AAE0B0E06B
S11309B0A7019601DDD7D5012C912053330B690192
S11309C0330FEE08FF08C60ED71EE81EF91E319637
S11309D0C3CF802F90E0672D845C9F4FE6D7809132
S11309E02E3E90E0880F991FB60180509040E8D7C2
S11309F00CC06F2D88EE9AE90BDE811561F0802F13
S1130A0090E06FEF845C9F4FD0D760912E3E6F5F74
S1130A1060932E3E5CCF6F2D8DEE9AE9F9DD811542
S1130A2009F466CFE1E0E80FF0E0E75CF14C1081F7
S1130A30105348EB5BE064E08D5F07DE4C0114303B
S1130A4010F497FF07C08091363E811151CF83EF98
S1130A509AE94DCF6EEF611B802F90E0845C9F4F2D
S1130A60A4D780912E3E90E0880F991FB401BDCF8A
S1130A70672D8DEF9AE9CCDD811541F081E08093FB
S1130A80833E8093853E82EA9AE931CF672D84E0E4
S1130A909BE9BEDD811509F46DC080E0C82E80E0BD
S1130AA0D82E812C912C5401C401845C9F4F70D7A3
S1130AB0182FC60175D77C0140E0C501B401F1DAF5
S1130AC080E2D4DA1D3F61F170F42701612C712CAE
S1130AD01B3F79F18EE19BE91C3F69F1103180F1F4
S1130AE08AE39BE928C08AE09BE91E3FD9F082E3B0
S1130AF09BE9C3DA8AE0BADAF2E0CF0ED11C2FEF19
S1130B00821A920AA20AB20A3EE183169104A1044F
S1130B10B10451F688E49BE9B0DA60912E3ED7CE59
S1130B2084E19BE9AADAB70180E090E040E0B9DA19
S1130B30E1CF88E29BE9A1DA40E0C301B201F7CF3B
S1130B4083E49BE99ADA812F869586958695805D64
S1130B508DDA12FB882780F9805D88DA11FB8827FB
S1130B6080F9805D83DA812F8170805D7FDA80E295
S1130B707DDAE2CF82E59BE9BACE7394672D8CE5EA
S1130B809BE946DD811551F064E08F5F12DD8F3FF4
S1130B9019F481E69BE9ABCE95DB75CF672D8EE624
S1130BA09BE936DD811539F1282F30E0F901E65C47
S1130BB0F14C60816053623068F49091383E2D5F4F
S1130BC03F4F9217130631F46093023E8CE590E098
S1130BD0ECD659CF61E0680F82E79BE919DD8115F6
S1130BE019F088E79BE983CE8091363E811180CE4F
S1130BF083E99BE97CCE672D8FE99BE909DD8115AB
S1130C0089F1282F30E0F901E65CF14C6081962FE0
S1130C10977F953611F0603781F49091383E2D5FBF
S1130C203F4F9217130649F48091013E861316C074
S1130C306093013E8BE590E0CBCF61E0680F82E7E3
S1130C409BE9E6DC811519F085EA9BE950CE809199
S1130C50363E81114DCE8BED9BE949CE81E08093E8
S1130C60853EE6CF672D89EE9BE9D2DC811531F113
S1130C70282F30E0F901E65CF14C6081605362306A
S1130C8060F49091383E2D5F3F4F9217130629F47C
S1130C9060936A3E8AE590E09BCF61E0680F82E74B
S1130CA09BE9B6DC811519F08FEE9BE920CE80918B
S1130CB0363E81111DCE89E09CE919CE87E19CE97D
S1130CC016CE80E29CE9D9D903E011E1D8016D91F7
S1130CD08D0170E080E090E040E0E3D980E2C6D985
S1130CE00D30B1E11B0791F782EA9AE96CCD4FE030
S1130CF057E264E081E0870DA8DC6C0148EB5BE01F
S1130D0064E086E0870DA1DC5C01C6018A299B2989
S1130D1097FD04C0B501C601B0DAE6CF8091363E36
S1130D2081117BCD83EF9AE94ECDFE013196709609
S1130D307F0182E29BD9C12CD12CD801AD90BC900B
S1130D40AC0CBD1CF501808191D9D5018C91803208
S1130D5049F08D3239F0BFEFCB1ADB0AECE2CE1644
S1130D60D10459F782E282D98AE080D90E5F1F4FFD
S1130D700E151F05F1F6B8CF8091363E81114DCD89
S1130D8089E29CE920CD2F923F924F925F926F921D
S1130D907F928F929F92AF92BF92CF92DF92EF9207
S1130DA0FF920F931F93CF93DF93162F072F382EA5
S1130DB0292ED42F57DA80918A3E813089F51092FA
S1130DC08A3EC0912804C3FBCC27C0F9C827CC0FA6
S1130DD08091080483FFC4608091080480FFC86088
S1130DE08091683E8C131092693E8091673E811118
S1130DF015C08091693E8F5F8093693E833370F0A4
S1130E008091873E811108C0C23009F0D7C081E0CB
S1130E108093863E8093853EC093873EC093683E10
S1130E208091893E813009F040C01092893E8091C2
S1130E30023E8130D1F56091733E7091743E809191
S1130E40753E9091763E44E0CAD989E69CE915D96D
S1130E506091773E7091783E8091793E90917A3E90
S1130E6044E0BDD989E69CE908D98DE69CE905D919
S1130E702091733E3091743E4091753E5091763E80
S1130E806091773E7091783E8091793E90917A3E60
S1130E9036D343E06B017C01C701B601A0D982E7D8
S1130EA09CE9EBD886E79CE9E8D88091883E8130BC
S1130EB009F066C080917B3E90917C3EA0917D3E7E
S1130EC0B0917E3E80936B3E90936C3EA0936D3EBA
S1130ED0B0936E3E60917B3E70917C3E80917D3EEE
S1130EE090917E3E0AD42EE030E841EE54E34B016B
S1130EF05C01C501B4018FD46093733E7093743E5A
S1130F008093753E9093763E10927B3E10927C3E89
S1130F1010927D3E10927E3E80917F3E9091803E65
S1130F20A091813EB091823E80936F3E9093703E3B
S1130F30A093713EB093723E60917F3E7091803E6B
S1130F408091813E9091823ED8D32EE030E841EEEC
S1130F5054E32B013C01C301B2015DD46093773E9D
S1130F607093783E8093793E90937A3E10927F3EC0
S1130F701092803E1092813E1092823E1092883EE2
S1130F80A5DB8091853E811509F44BC0D11509F488
S1130F9048C01092853EDF91CF911F910F91FF9031
S1130FA0EF90DF90CF90BF90AF909F908F907F9005
S1130FB06F905F904F903F902F900895C430C9F583
S1130FC020912B3E30912C3EA0E1B7E2C5D421E024
S1130FD02093673E683820ED720721E0820791056F
S1130FE0A8F024E73EE240E050E078D420932B3E82
S1130FF030932C3E81E036D060912B3E70912C3E94
S11310008EE590E0DDD41092673E06CF8AE090E052
S113101080932B3E90932C3E82E0EDCF8FEF9FEF99
S1131020F7CF612F702F832D922D04D98111C3CE58
S1131030B2CFC83009F0F0CE20912B3E30912C3E37
S1131040A4E7BEE289D421E02093673E61157105CF
S113105020E1820727E2920708F720E137E240E027
S113106050E0C3CFCF93DF93C82FD0E0DC1303C08D
S1131070DF91CF91089564E670E080E89CE0FDD8AC
S113108040E068EC70E080E090E07DDEDF5FEECF72
S1131090CF93C82F811559F08091843E811107C0E8
S11310A08C2FE0DF6C2F8DE590E0CF917EC4CF9143
S11310B0089500D000D00F92CDB7DEB788ED90E050
S11310C084BF9093610082EF8093000488E0809352
S11310D01004809312048093130492E09093040408
S11310E0109220041092300410923104809333043F
S11310F01092000A83E48093010A88E19CE38093C0
S1131100260A9093270A8091260A9091270A969599
S1131110879580932C0A90932D0A1092400A10927E
S1131120410AE1E0E093450A80E29EE480934C0AA0
S113113090934D0AE093480A8091400A816080931D
S1131140400AE093460A8091010281608093010283
S113115080E88093050883E080930708A091251117
S11311600A2E000CBB0B20E03DE241E351E00AD41F
S1131170EAE09695879577956795EA95D1F7735D3B
S11311808E4C9E4FF6E0660F771F881F991FFA95C5
S1131190D1F7B3D220E030E046E958E42B013C011A
S11311A0C301B20111D220E030E040E05FE34B0123
S11311B05C01C501B401A4D169837A838B839C83C8
S11311C069817A818B819C816CD2609308087093C9
S11311D009088091040880688093040880EC809357
S11311E006081092A000F2E0F093A10083E8809337
S11311F0000686E08093010685E080930206109243
S1131200030610920406109205068AE080930606EF
S113121081E0809308061092090680930A06809361
S11312200B0610920C068093160678948CE590E0D9
S1131230AFD389838093023E8BE590E0A9D380935A
S1131240013E8AE590E0A4D38D8380936A3E8EE5C7
S113125090E0A6D380932B3E90932C3E8DE590E0B6
S113126097D381508093843E9981923008F487C04B
S1131270ED81E23008F489C061E08CE590E0A6D30A
S113128060E78BE590E0A2D360E08AE590E09ED32E
S113129061E08DE590E09AD368E873E18EE590E033
S11312A0A9D333E0A32E3EE3B32E4CE3C42E40E097
S11312B0D42E80E090E089839A83F12CF50161912A
S11312C05F01C60183D364EF71E089819A8192D36F
S11312D0F50182918F3FA1F58F2D90E089839A8348
S11312E0845C9F4F6C01E981FA81EE0FFF1FE0508F
S11312F0F040E983FA839EE1F9122FC064E670E0BE
S113130084EF91E0BAD740E064E670E080E090E0DA
S11313103ADD64E670E088E592E0AFD740E064E649
S113132070E080E090E02FDD64E670E08CEB92E00A
S1131330A4D740E06CE271E080E090E024DD76CF59
S1131340F394FFEFCF1ADF0A89819A810296898389
S11313509A839EE1F912B2CFBFCF6FEFC60136D3A5
S113136064EF71E089819A8145D3F394EFEFCE1A4B
S1131370DE0A89819A81029689839A83BCCFE981A6
S1131380E11103C089E79CE978D68DE590E000D3AC
S113139081508093843E1982F12C8091013E8037E4
S11313A0E9F4CF2CD12C8091013E8037B9F480919F
S11313B0843E81113FC0C6018D5F914C5C01FD826A
S11313C08D81883208F457C08091863E811559F387
S11313D01092863E8091013E803779F1853609F07E
S11313E088C08CE3C82E80E0D82E90E0E92E90E0EF
S11313F0F92EC601CDD28983C701D2D28C01E981ED
S1131400EF3F09F458C0ED3F09F458C0EE3F09F42A
S113141048C0EB3F09F456C0BC0184EC99E0EC3FB2
S113142009F442C089814ED7B80180E090E041E0E0
S1131430AADC3BC081508093843E89818F5FE3E0C6
S1131440FEE319821D829981891781F091919F3F52
S113145031F490819F3F11F199819F5F99839D8120
S11314609F5F9D83973279F78983FD8289818F5F9E
S11314700FDEFD8092CFF50181915F018F3F09F46A
S1131480A3CF20D760912B3E70912C3E80E090E05A
S113149041E079DCFD81FF5FFD8392CF19821D82DB
S11314A0E5CFBC0180EB94E0E8D68091833E8115C2
S11314B069F01092833E8091013E90CFBC0180E49C
S11314C096E0F2CFBC0180E89CE0EECFFFEFCF1AAC
S11314D0DF0A82E0E80EF11C9CE3E91690E0F906CD
S11314E009F087CFE8CF41E064E670E080E090E067
S11314F04ADC8091013E8D3609F047CFF4CF505835
S1131500BB27AA270ED04DC13ED130F043D120F0E5
S113151031F49F3F11F41EF433C10EF4E095E7FB60
S113152029C1E92F4FD180F3BA17620773078407E3
S1131530950718F071F49EF567C10EF4E0950B2E33
S1131540BA2FA02D0B01B90190010C01CA01A00111
S11315501124FF27591B99F0593F50F4503E68F16C
S11315601A16F040A22F232F342F4427585FF3CFAD
S1131570469537952795A795F0405395C9F77EF47E
S11315801F16BA0B620B730B840BBAF09150A1F0C7
S1131590FF0FBB1F661F771F881FC2F70EC0BA0F4D
S11315A0621F731F841F48F4879577956795B795D5
S11315B0F7959E3F08F0B3CF9395880F08F09927CD
S11315C0EE0F9795879508950CD0EBC0E3D040F0CB
S11315D0DAD030F021F45F3F19F0CCC0511115C1BD
S11315E0CFC0F0D098F39923C9F35523B1F3951BD9
S11315F0550BBB27AA2762177307840738F09F5F30
S11316005F4F220F331F441FAA1FA9F333D00E2E9E
S11316103AF0E0E830D091505040E695001CCAF70B
S113162029D0FE2F27D0660F771F881FBB1F2617D0
S113163037074807AB07B0E809F0BB0B802DBF01A3
S1131640FF2793585F4F2AF09E3F510568F092C0E0
S1131650DCC05F3FECF3983EDCF3869577956795A5
S1131660B795F7959F5FC9F7880F911D9695879554
S113167097F90895E1E0660F771F881FBB1F621773
S113168073078407BA0720F0621B730B840BBA0B31
S1131690EE1F88F7E095089504D06894B111B5C0A1
S11316A0089598D088F09F5790F0B92F9927B75193
S11316B0A0F0D1F0660F771F881F991F1AF0BA9512
S11316C0C9F712C0B13081F09FD0B1E008959CC039
S11316D0672F782F8827B85F39F0B93FCCF3869508
S11316E077956795B395D9F73EF490958095709565
S11316F061957F4F8F4F9F4F0895E89409C097FBE2
S11317003EF490958095709561957F4F8F4F9F4FD4
S11317109923A9F0F92F96E9BB279395F695879518
S113172077956795B795F111F8CFFAF4BB0F11F4DB
S113173060FF1BC06F5F7F4F8F4F9F4F16C0882382
S113174011F096E911C0772321F09EE8872F762FB8
S113175005C0662371F096E8862F70E060E02AF0F9
S11317609A95660F771F881FDAF7880F96958795E5
S113177097F9089597F99F6780E870E060E008950D
S11317809FEF80EC089500240A9416161706180695
S11317900906089500240A94121613061406050671
S11317A00895092E0394000C11F4882352F0BB0F02
S11317B040F4BF2B11F460FF04C06F5F7F4F8F4F65
S11317C09F4F089557FD9058440F551F59F05F3FA0
S11317D071F04795880F97FB991F61F09F3F79F04F
S11317E087950895121613061406551FF2CF4695D1
S11317F0F1DF08C0161617061806991FF1CF869553
S11318007105610508940895E894BB276627772736
S1131810CB0197F908950BD0C4CFB5DF28F0BADF18
S113182018F0952309F0A6CFABCF1124EECFCADF71
S1131830A0F3959FD1F3950F50E0551F629FF001DF
S1131840729FBB27F00DB11D639FAA27F00DB11D38
S1131850AA1F649F6627B00DA11D661F829F2227C1
S1131860B00DA11D621F739FB00DA11D621F839F48
S1131870A00D611D221F749F3327A00D611D231F1E
S1131880849F600D211D822F762F6A2F11249F576C
S113189050408AF0E1F088234AF0EE0FFF1FBB1F8F
S11318A0661F771F881F91505040A9F79E3F51052E
S11318B070F060CFAACF5F3FECF3983EDCF38695DF
S11318C077956795B795F795E7959F5FC1F7FE2BD9
S11318D0880F911D9695879597F90895A1E21A2E80
S11318E0AA1BBB1BFD010DC0AA1FBB1FEE1FFF1FC0
S11318F0A217B307E407F50720F0A21BB30BE40B10
S1131900F50B661F771F881F991F1A9469F7609556
S11319107095809590959B01AC01BD01CF01089510
S1131920052E97FB16F400940FD057FD05D0D6DF93
S113193007FC02D046F408C0509540953095219597
S11319403F4F4F4F5F4F08959095809570956195E7
S11319507F4F8F4F9F4F0895A29FB001B39FC00147
S1131960A39F01D0B29F700D811D1124911D089574
S1131970F3DFA59F900DB49F900DA49F800D911D42
S113198011240895B7FFF4CFF3DF821B930B08955E
S113199003D0808199270895FC01E050FC4E0895FE
S11319A00E94CC0C808191810895262F0E94CC0C3A
S11319B00080021619F00E94E70C01970197089520
S11319C00196272F0E94D60C0C94D50C262FAF938A
S11319D0BF93E0E0F0E1328131FDFDCFDC01A050A6
S11319E0BC4E2C932DE924BF23E020830196BF91A4
S11319F0AF9108950E94E60C272F0C94E70CF894FD
S1131A00FFCFE3C6C6C6E4C6B8C844C75AC96FC93F
S1051A108CC97B
S1131A12479C4E9C519C579C5C9C619CED9A729B8A
S1131A22302E006175746F4D6561733A00207365E1
S1131A32714D6F64653A7000207365714D6F646512
S1131A423A6500207365714D6F64653A6D002073C9
S1131A5265714D6F64653A00206550726F67536516
S1131A626C3A00206B726F6B4361733A0020560A22
S1131A720053656B76656E63657238313476300A6D
S1131A8200757361727452784D73674661696C3A7A
S1131A9200202F006164722D00736B697020002096
S1131AA24F4B0A00455252207365712D6164720ACC
S1131AB2006170702D00455252207365712D617062
S1131AC2702D3A20455345515F6C656E0A004552AC
S1131AD252207365712D6170702D626262622D7481
S1131AE2747474740A00656E642000626565702DF6
S1131AF20045525220626565700A0072657365740E
S1131B0220006C69737420005049505F6672713012
S1131B1220005049505F6672713120005049505F75
S1131B226672713220005049505F66727133200030
S1131B325345515F656E640028756E64656629209D
S1131B42006F757420004E657874206170703A00DD
S1131B52455252207365712D0A006F75742D00452C
S1131B625252207365742D6F75740A00616D2D00D5
S1131B7268656C7020004175746F206D6572656EC6
S1131B82693A2030202F2031202F2068656C700A9A
S1131B92004552522073657420616D0A00736D6FA3
S1131BA2642D004D6F642073656B76656E63653AD0
S1131BB2206520454550524F4D202F2070207072D1
S1131BC265646465662E2F206D206D616E75616C8F
S1131BD2202F2068656C700A004552522073657488
S1131BE220736D6F640A00726D6F642D004D6F6413
S1131BF22072657665727A3A2030202F2031202FA8
S1131C022068656C700A0045525220736574207214
S1131C126D6F640A00455252207365740A00534E74
S1131C2220302D393A2000455252636D640A002354
S1131C32757361727452784D65737361676520665A
S1131C4261696C3A006964656E7420006D200073EA
S1131C5274617420007365742D007365712D0073B3
S1131C62657269616C20002056090064696620006F
S1131C7220562000200A006175746F4D6561733D22
S1081C82300A000A0B0A
S1131C87FF700108040201FF080402FF0C060309A0
S1131C97FF0C060AFF0C03FF0A05FF0F00FFFF00F6
S1111CA7000000000000000000000088130090
S9030000FC
