S00D000074657374332E7372656324
S113000019C020C01FC01EC01DC01CC01BC01AC008
S11300105AC018C017C016C015C014C013C012C0EF
S113002011C010C00FC00EC00DC00CC00BC00AC060
S113003009C008C011241FBECFEFCDBFDFE3DEBF70
S113004002D053C0DDCF90E088ED84BF909361006F
S1130050A0E0B4E08AEF8C9398E09093100487E0DA
S11300608093200410923304E0E0FAE010821182BD
S113007081E082872AE03AE126A337A3838780813F
S11300808160808315969C93789480EF8093070415
S113009087E08093270487EA91E60197F1F700C08F
S11300A000008091260A9091270A039740F0E0E02F
S11300B0FAE086A197A1019786A397A3E6CF88E0EB
S11300C080930604E2CF1F920F920FB60F92112471
S11300D08F9388E08093030481E080930B0A8F91CF
S11100E00F900FBE0F901F901895F894FFCF4D
S9030000FC
